:020000020000FC
:100000000C9450000C94A5000C94B5000C94C50001
:0C0010000C94C7000C94C9000C94CB00A9
:040040000C94CD004F
:1000A0000FEF0DBF00E10EBF0FE309BF0AEA009397
:1000B0006A000AE00ABF07E003BF0EEC02BF01E0DE
:1000C00007BF002707BB0FEF04BB05BB10E020E014
:1000D00030E040E054E160E070E080E090E0A0E0DB
:1000E000B0E0C0E0D2E0E0E0F1E07894A898103011
:1000F000E9F3113021F01230C1F00C947600A89A87
:100100000E94D700223071F40E940501AA980E9433
:10011000D100AA9A0E940501AA980E946901AA9A90
:100120000E941A0110E00C947600A89A0E94F00038
:10013000AF980E94D100AF9A0E94F000AF9A0E943F
:100140002F01AF9A10E00C9476000F930FB70F9326
:10015000843038F441930C94AD0044278894BB1F3D
:1001600083950F910FBF0F9118950F930FB70F93B2
:10017000843038F441930C94BD0044270894BB1F8D
:1001800083950F910FBF0F91189512E0189511E00C
:10019000189531E0189521E018950EEC02BF4395B3
:1001A000189533273130F1F776B33327089521308E
:1001B000F1F7222766B354E1659F902D802D950FAE
:1001C000851B44272130F1F7941730F0481720F0B1
:1001D0009927882722E008959927882722270895BC
:1001E00044276627643081F0AE984C3010F40C94AC
:1001F000F200442763956395AE9A483010F40C944E
:10020000FC0044270C94F2000895442766276430CC
:1002100081F0A9984C3010F40C94070144276395A1
:100220006395A99A483010F40C94110144270C945A
:100230000701089544276627643081F0AB984C305D
:1002400010F40C941C01442763956395AB9A4830D5
:1002500010F40C94260144270C941C01089588275F
:100260009927BB270E948501EA2F44278430F0F3A9
:100270008827B193EA2FCA2FE1990C943C01FFBB68
:10028000EEBBE09ABDB3B9938395E3958530A0F3B7
:1002900088277727EA2FCA2F8395853068F4B9918C
:1002A000119104E1B00FB117B8F3B01BB01B1B17CD
:1002B00098F373950C944C01B8811081B11709F42F
:1002C0007395753018F40E94050108950E941A0173
:1002D00008958827BB270E948501EA2F4427843090
:1002E000F0F3B193EA2F8827F894E1990C94750103
:1002F0008395863040F4FFBBEEBBB191BDBBE29A63
:10030000E19A0C94750178940895A72F05E0A09FB9
:06031000A02DBB2708959B
:00000001FF
